:100000000C9434000C9451000C9451000C94510049
:100010000C9451000C9451000C9451000C9451001C
:100020000C9451000C9451000C9451000C9451000C
:100030000C9451000C9451000C9451000C945100FC
:100040000C9451000C9451000C9471010C94A30178
:100050000C9451000C9451000C9451000C945100DC
:100060000C9451000C94510011241FBECFEFD8E026
:10007000DEBFCDBF11E0A0E0B1E0E4E8F4E002C0F3
:1000800005900D92A032B107D9F722E0A0E2B1E0CD
:1000900001C01D92AC32B207E1F70E9419020C9424
:1000A00040020C94000060E072EC81E090E00E945D
:1000B000E60080E091E00E94600181E191E00E9411
:1000C000600180E191E00E94600181E20E943901BB
:1000D0000E94F2018AB180638AB98AB1837F8AB9AA
:1000E0004FEF60E080E00E940E0240E86CE080E0AC
:1000F0000E940E0240E061E080E00C940E028B3C16
:10010000910549F08830910541F488E00E94390159
:100110008FE590E002C08BE190E09C0121543240D9
:100120002A31310510F4805492409C012156310946
:100130002A31310508F4809708955C980E947F0069
:10014000803694F4482F406863E180E00E940E02FC
:100150005C9A88E14A9902C08150E1F75C9888E195
:100160004A9B02C08150E1F708950E941001892B3B
:1001700029F00E94150190E00C949D000895CF9302
:10018000C82F8D3039F08F3541F480E20E9439015B
:1001900088E004C08AE00E9439018C2F0E94390156
:1001A000CF9108955D9A85E08A95F1F700004B9B09
:1001B00008C062E180E00E9400025D988F770C9495
:1001C000BF0008950E94B5000C94D200CF93DF9336
:1001D0009B01AC01C1ECD0E01882E0E2F1E01582B5
:1001E00014821382128211821082E6EAF1E01582F3
:1001F0001482138212821182108260E874E88EE108
:1002000090E00E941E02822F8170815036952795C2
:10021000280F2093C40088E98883DF91CF91089547
:10022000809124019091250108958091240190915D
:100230002501892BD1F3209122013091230133270D
:10024000F901E05EFE4F8681F894409124015091BF
:100250002501415051095093250140932401789480
:100260002F5F3F4F2F7733273093230120932201B5
:1002700008952091AA013091AB0120383105C8F7CB
:100280002091A6013091A7013327F901EA55FE4FCD
:100290008683F8948091AA019091AB010196909386
:1002A000AB018093AA0188EB8093C10078942F5F03
:1002B0003F4F2F7733273093A7012093A60108954E
:1002C000CF93DF93EC018991882319F00E943901C3
:1002D000FACF8DE00E9439018AE0DF91CF910C9432
:1002E00039011F920F920FB60F9211242F938F9303
:1002F0009F93EF93FF932091C600809124019091EA
:10030000250187FD16C08F5F90E0909325018093B3
:10031000240180912001909121019927FC01E05E48
:10032000FE4F268301968F77992790932101809322
:100330002001FF91EF919F918F912F910F900FBE10
:100340000F901F9018951F920F920FB60F921124C5
:100350002F933F938F939F93EF93FF938091AA01E5
:100360009091AB01811104C088E98093C1001CC049
:100370002FEF280F822F90E09093AB018093AA017A
:100380008091A8019091A9019927FC01EA55FE4F9F
:1003900036813093C60001968F7799279093A901F3
:1003A0008093A801222301F3FF91EF919F918F91F8
:1003B0003F912F910F900FBE0F901F9018952A9A82
:1003C00084B18C6284B9249881E08DBD80E58CBDB8
:1003D0008CB58C7F8CBD08958EBD0DB407FEFDCF0E
:1003E0008EB508950C94DF01CF93C62F2A988064B0
:1003F0000E94EC018C2FCF910C94EC012A9A089565
:10040000CF93880F81600E94F40180E00E94EC018C
:10041000C82F0E94FE018C2FCF910895CF93C42F37
:10042000880F0E94F4018C2F0E94EC01CF910C9454
:10043000FE010E9453000E94E200FDCFA1E21A2EAD
:10044000AA1BBB1BFD010DC0AA1FBB1FEE1FFF1F78
:10045000A217B307E407F50720F0A21BB30BE40BC8
:10046000F50B661F771F881F991F1A9469F760950F
:100470007095809590959B01AC01BD01CF010895C9
:04048000F894FFCF1E
:100484004170706C6520436F6D70757465722031B6
:1004940000436F70797269676874203139373600A8
:00000001FF
