:100000000C9434000C9446000C9446000C9446006A
:100010000C9446000C9446000C9446000C94460048
:100020000C9446000C9446000C9446000C94460038
:100030000C9446000C9446000C9446000C94460028
:100040000C9446000C9446000C9439010C946B01FE
:100050000C9446000C9446000C9446000C94460008
:100060000C9446000C94460011241FBECFEFD8E03C
:10007000DEBFCDBF22E0A0E0B1E001C01D92AC30F8
:10008000B207E1F70E94E1010C9408020C94000011
:1000900060E072EC81E090E00E94BF0081E20E948B
:1000A00012010E94BA018AB180638AB98AB1837F42
:1000B0008AB94FEF60E080E00E94D60140E86CE032
:1000C00080E00E94D60140E061E080E00C94D6011F
:1000D0008B3C910511F48BE190E09C01215432405E
:1000E0002A31310510F4805492409C012156310987
:1000F0002A31310508F4809708955C980E946800C1
:10010000803694F4482F406863E180E00E94D60175
:100110005C9A88E14A9902C08150E1F75C9888E1D5
:100120004A9B02C08150E1F708950E94E900892BA3
:1001300029F00E94EE0090E00C947D000895CF938A
:10014000C82F8D3019F48AE00E9412018C2F0E9472
:100150001201CF9108955D9A85E08A95F1F700002C
:100160004B9B08C062E180E00E94C8015D988F77D8
:100170000C949F0008950E9495000C94AB00CF93BF
:10018000DF939B01AC01C1ECD0E01882E0E0F1E02C
:10019000158214821382128211821082E6E8F1E045
:1001A00015821482138212821182108260E874E830
:1001B0008EE190E00E94E601822F81708150369599
:1001C0002795280F2093C40088E98883DF91CF9179
:1001D0000895809104019091050108958091040192
:1001E00090910501892BD1F32091020130910301F7
:1001F0003327F901E050FF4F8681F89440910401C4
:10020000509105014150510950930501409304015B
:1002100078942F5F3F4F2F7733273093030120933C
:100220000201089520918A0130918B012038310517
:10023000C8F720918601309187013327F901EA57E9
:10024000FE4F8683F89480918A0190918B010196EC
:1002500090938B0180938A0188EB8093C1007894FE
:100260002F5F3F4F2F7733273093870120938601ED
:1002700008951F920F920FB60F9211242F938F9310
:100280009F93EF93FF932091C6008091040190917A
:10029000050187FD16C08F5F90E090930501809364
:1002A000040180910001909101019927FC01E05027
:1002B000FF4F268301968F779927909301018093B2
:1002C0000001FF91EF919F918F912F910F900FBEA1
:1002D0000F901F9018951F920F920FB60F92112436
:1002E0002F933F938F939F93EF93FF9380918A0176
:1002F00090918B01811104C088E98093C1001CC0DA
:100300002FEF280F822F90E090938B0180938A012A
:1003100080918801909189019927FC01EA57FE4F4D
:1003200036813093C60001968F7799279093890183
:1003300080938801222301F3FF91EF919F918F9188
:100340003F912F910F900FBE0F901F9018952A9AF2
:1003500084B18C6284B9249881E08DBD80E58CBD28
:100360008CB58C7F8CBD08958EBD0DB407FEFDCF7E
:100370008EB508950C94A701CF93C62F2A98806458
:100380000E94B4018C2FCF910C94B4012A9A089545
:10039000CF93880F81600E94BC0180E00E94B4016D
:1003A000C82F0E94C6018C2FCF910895CF93C42FE0
:1003B000880F0E94BC018C2F0E94B401CF910C9435
:1003C000C6010E9448000E94BB00FDCFA1E21A2E88
:1003D000AA1BBB1BFD010DC0AA1FBB1FEE1FFF1FE9
:1003E000A217B307E407F50720F0A21BB30BE40B39
:1003F000F50B661F771F881F991F1A9469F7609580
:100400007095809590959B01AC01BD01CF01089539
:04041000F894FFCF8E
:00000001FF
