:100000000C9434000C9446000C9446000C9446006A
:100010000C9446000C9446000C9446000C94460048
:100020000C9446000C9446000C9446000C94460038
:100030000C9446000C9446000C9446000C94460028
:100040000C9446000C9446000C9449010C947B01DE
:100050000C9446000C9446000C9446000C94460008
:100060000C9446000C94460011241FBECFEFD8E03C
:10007000DEBFCDBF22E0A0E0B1E001C01D92AC30F8
:10008000B207E1F70E94F1010C9418020C940000F1
:1000900060E072EC81E090E00E94CF0081E20E947B
:1000A00022010E94CA018AB180638AB98AB1837F22
:1000B0008AB94FEF60E080E00E94E60140E86CE022
:1000C00080E00E94E60140E061E080E00C94E601FF
:1000D0008B3C910549F08830910541F488E00E94FD
:1000E00022018FE590E002C08BE190E09C01215459
:1000F00032402A31310510F4805492409C0121563F
:1001000031092A31310508F4809708955C980E94DE
:100110006800803694F4482F406863E180E00E94D4
:10012000E6015C9A88E14A9902C08150E1F75C9847
:1001300088E14A9B02C08150E1F708950E94F900CE
:10014000892B29F00E94FE0090E00C94860008950F
:10015000CF93C82F8D3039F08F3541F480E20E9463
:10016000220188E004C08AE00E9422018C2F0E94B4
:100170002201CF9108955D9A85E08A95F1F70000FC
:100180004B9B08C062E180E00E94D8015D988F77A8
:100190000C94A80008950E949E000C94BB00CF937D
:1001A000DF939B01AC01C1ECD0E01882E0E0F1E00C
:1001B000158214821382128211821082E6E8F1E025
:1001C00015821482138212821182108260E874E810
:1001D0008EE190E00E94F601822F81708150369569
:1001E0002795280F2093C40088E98883DF91CF9159
:1001F0000895809104019091050108958091040172
:1002000090910501892BD1F32091020130910301D6
:100210003327F901E050FF4F8681F89440910401A3
:10022000509105014150510950930501409304013B
:1002300078942F5F3F4F2F7733273093030120931C
:100240000201089520918A0130918B0120383105F7
:10025000C8F720918601309187013327F901EA57C9
:10026000FE4F8683F89480918A0190918B010196CC
:1002700090938B0180938A0188EB8093C1007894DE
:100280002F5F3F4F2F7733273093870120938601CD
:1002900008951F920F920FB60F9211242F938F93F0
:1002A0009F93EF93FF932091C6008091040190915A
:1002B000050187FD16C08F5F90E090930501809344
:1002C000040180910001909101019927FC01E05007
:1002D000FF4F268301968F77992790930101809392
:1002E0000001FF91EF919F918F912F910F900FBE81
:1002F0000F901F9018951F920F920FB60F92112416
:100300002F933F938F939F93EF93FF9380918A0155
:1003100090918B01811104C088E98093C1001CC0B9
:100320002FEF280F822F90E090938B0180938A010A
:1003300080918801909189019927FC01EA57FE4F2D
:1003400036813093C60001968F7799279093890163
:1003500080938801222301F3FF91EF919F918F9168
:100360003F912F910F900FBE0F901F9018952A9AD2
:1003700084B18C6284B9249881E08DBD80E58CBD08
:100380008CB58C7F8CBD08958EBD0DB407FEFDCF5E
:100390008EB508950C94B701CF93C62F2A98806428
:1003A0000E94C4018C2FCF910C94C4012A9A089505
:1003B000CF93880F81600E94CC0180E00E94C4012D
:1003C000C82F0E94D6018C2FCF910895CF93C42FB0
:1003D000880F0E94CC018C2F0E94C401CF910C94F5
:1003E000D6010E9448000E94CB00FDCFA1E21A2E48
:1003F000AA1BBB1BFD010DC0AA1FBB1FEE1FFF1FC9
:10040000A217B307E407F50720F0A21BB30BE40B18
:10041000F50B661F771F881F991F1A9469F760955F
:100420007095809590959B01AC01BD01CF01089519
:04043000F894FFCF6E
:00000001FF
